:100000000C945D000C9485000C9485000C94850084
:100010000C9485000C9485000C9485000C9485004C
:100020000C9485000C9485000C9485000C9485003C
:100030000C9485000C9485000C9485000C9485002C
:100040000C9437020C9485000C9485000C94850068
:100050000C9485000C9485000C9485000C9485000C
:100060000C9485000C94850000000008000201003B
:100070000003040700000000000000000102040863
:100080001020408001020408102001020408102002
:10009000040404040404040402020202020203032E
:1000A0000303030300000000250028002B000000CC
:1000B0000000240027002A00AA0011241FBECFEF51
:1000C000D8E0DEBFCDBF11E0A0E0B1E0E6E9F8E0A6
:1000D00002C005900D92A631B107D9F721E0A6E143
:1000E000B1E001C01D92A733B207E1F710E0CAEBFF
:1000F000D0E004C02297FE010E944504C83BD1070E
:10010000C9F70E9412040C9449040C94000020E0EA
:1001100042E060E186E191E00E94730160E071E0FD
:1001200086E191E00C94A90341E060E086E191E072
:100130000E9459010E94810228EE33E040E050E025
:100140000E942104BA01A9012AE030E086E191E091
:100150000C940404CF92EF920F9382E0C82E93E0A8
:10016000E92E04E025E04BE06CE086E191E00E949E
:1001700011020F91EF90CF900895CF93DF93EC0190
:1001800060E08E810E94350381E090E00E948D0244
:1001900061E08E810E94350381E090E00E948D0233
:1001A00060E08E810E94350384E690E0DF91CF917C
:1001B0000C948D02EF92FF920F931F93CF93DF93D6
:1001C0008C01C0E0D0E0E62EF12CB7010C2E02C06D
:1001D000759567950A94E2F76170F801EC0FFD1FC1
:1001E00087810E9435032196C430D10571F7C8017B
:1001F000DF91CF911F910F91FF90EF900C94BD0074
:10020000EF92FF920F931F93CF93DF938C01C0E087
:10021000D0E0E62EF12CB7010C2E02C07595679543
:100220000A94E2F76170F801EC0FFD1F87810E94CC
:1002300035032196C830D10571F7C801DF91CF9100
:100240001F910F91FF90EF900C94BD001F93CF93DF
:10025000DF93EC01162F642F8C810E9435038D8172
:100260008F3F19F060E00E9435038F85612F84FF76
:1002700006C0CE01DF91CF911F910C94000170E078
:1002800084E0759567958A95E1F7CE010E94DA00C2
:10029000612FCE01DF91CF911F910C94DA0040E0E5
:1002A0000C94260161E00E944F0180ED97E00C94D0
:1002B0008D02443008F043E0FC012389421710F01E
:1002C0004FEF420FFC01E40FF11D2489260F206837
:1002D000622F0C944F01FC016089262F2460208B33
:1002E0006C600C944F010F931F93CF93DF93EC013D
:1002F000423018F08F8588608F874B8B1C8A80E492
:100300008D8B6E8B70E0605C7F4F6F8B222329F0AA
:10031000413019F48F8584608F8761E08C810E9461
:10032000FC028D818F3F19F061E00E94FC0261E0C8
:100330008E810E94FC0200E010E08F8584FF03C0E4
:1003400088E090E002C084E090E00817190754F4B8
:10035000FE01E00FF11F61E087810E94FC020F5F48
:100360001F4FEBCF80E593EC0E948D0260E08C8103
:100370000E94350360E08E810E9435038D818F3F9E
:1003800019F060E00E9435036F8564FD1DC063E0D5
:10039000CE010E94DA0084E991E10E948D0263E0BF
:1003A000CE010E94DA0084E991E10E948D0263E0AF
:1003B000CE010E94DA0086E990E00E948D0262E0A0
:1003C000CE010E94DA0016C06062CE010E944F0189
:1003D00084E991E10E948D026F856062CE010E94E6
:1003E0004F0186E990E00E948D026F856062CE0128
:1003F0000E944F016F856062CE010E944F0184E030
:10040000888BCE010E946B01CE010E94520182E0D6
:10041000898B66E0CE01DF91CF911F910F910C94F3
:100420004F01CF92EF920F93FC011382128282E16F
:1004300091E09183808364838FEF85834683278354
:100440000087E186C286138614861586168617866F
:1004500020E041E060E1CF010F91EF90CF900C944C
:10046000730141E00E94260181E090E008951F920F
:100470000F920FB60F9211242F933F938F939F9358
:10048000AF93BF9380912F0190913001A0913101E2
:10049000B091320130912E0123E0230F2D3720F44B
:1004A0000196A11DB11D05C026E8230F0296A11DCE
:1004B000B11D20932E0180932F0190933001A093C2
:1004C0003101B09332018091330190913401A091B8
:1004D0003501B09136010196A11DB11D8093330104
:1004E00090933401A0933501B0933601BF91AF9141
:1004F0009F918F913F912F910F900FBE0F901F9062
:1005000018952FB7F89460912F0170913001809168
:100510003101909132012FBF08958230910538F05A
:10052000880F991F880F991F05970197F1F7089574
:10053000789484B5826084BD84B5816084BD85B5BE
:10054000826085BD85B5816085BDEEE6F0E0808185
:1005500081608083E1E8F0E01082808182608083A6
:10056000808181608083E0E8F0E080818160808329
:10057000E1EBF0E0808184608083E0EBF0E080815B
:1005800081608083EAE7F0E08081846080838081FD
:1005900082608083808181608083808180688083A5
:1005A0001092C1000895833081F028F4813099F0D1
:1005B0008230A1F008958730A9F08830B9F08430F6
:1005C000D1F4809180008F7D03C0809180008F776F
:1005D00080938000089584B58F7702C084B58F7DA5
:1005E00084BD08958091B0008F7703C08091B000E2
:1005F0008F7D8093B0000895CF93DF9390E0FC014E
:10060000E458FF4F2491FC01E057FF4F8491882369
:1006100049F190E0880F991FFC01E255FF4FA59129
:10062000B4918C559F4FFC01C591D4919FB7611136
:1006300008C0F8948C91209582238C938881822322
:100640000AC0623051F4F8948C91322F3095832394
:100650008C938881822B888304C0F8948C91822BA0
:100660008C939FBFDF91CF9108950F931F93CF93EA
:10067000DF931F92CDB7DEB7282F30E0F901E8599C
:10068000FF4F8491F901E458FF4F1491F901E057AD
:10069000FF4F04910023C9F0882321F069830E9451
:1006A000D3026981E02FF0E0EE0FFF1FEC55FF4F02
:1006B000A591B4919FB7F8948C91611103C01095E6
:1006C000812301C0812B8C939FBF0F90DF91CF912D
:1006D0001F910F910895CF92DF92EF92FF920F93A7
:1006E0001F93CF93DF937C016A01EB0100E010E0E0
:1006F0000C151D0571F06991D701ED91FC910190E8
:10070000F081E02DC7010995892B19F00F5F1F4F6C
:10071000EFCFC801DF91CF911F910F91FF90EF9024
:10072000DF90CF9008956115710581F0DB010D9088
:100730000020E9F7AD0141505109461B570BDC0180
:10074000ED91FC910280F381E02D099480E090E02E
:1007500008950C9493038F929F92AF92BF92CF9281
:10076000DF92EF92FF920F931F93CF93DF93CDB75A
:10077000DEB7A1970FB6F894DEBF0FBECDBF7C01E8
:10078000C42EE52FCB01D22E19A221E02D1510F099
:100790002AE0D22E8E010F5D1F4F8D2C912CA12CA3
:1007A000B12C6C2D7E2FA50194010E9421048C2D6B
:1007B000D29E80191124015011098A3014F4805DF1
:1007C00001C0895CF801808321153105410551057F
:1007D00021F0C22EE32FCA01E4CFB801C7010E9465
:1007E0009303A1960FB6F894DEBF0FBECDBFDF9185
:1007F000CF911F910F91FF90EF90DF90CF90BF901E
:10080000AF909F908F9008952115310541F4DC0140
:10081000ED91FC910190F081E02D642F09940C94EE
:10082000AB0308950E9498020E9411040E94870061
:10083000C0E0D0E00E9494002097E1F30E94000005
:10084000F9CFA1E21A2EAA1BBB1BFD010DC0AA1FE6
:10085000BB1FEE1FFF1FA217B307E407F50720F029
:10086000A21BB30BE40BF50B661F771F881F991FA4
:100870001A9469F760957095809590959B01AC01ED
:10088000BD01CF010895EE0FFF1F0590F491E02DFB
:060890000994F894FFCF6B
:1008960068656C6C6F2C20776F726C6421000000A9
:0608A600000031026B03AB
:00000001FF
